{
  "_format": "hh-sol-artifact-1",
  "contractName": "DonationsEscrowFactory",
  "sourceName": "contracts/DonationsEscrowFactory.sol",
  "abi": [
    {
      "inputs": [
        {
          "internalType": "address",
          "name": "_currencyAddress",
          "type": "address"
        }
      ],
      "stateMutability": "nonpayable",
      "type": "constructor"
    },
    {
      "anonymous": false,
      "inputs": [
        {
          "indexed": false,
          "internalType": "address",
          "name": "account",
          "type": "address"
        }
      ],
      "name": "Paused",
      "type": "event"
    },
    {
      "anonymous": false,
      "inputs": [
        {
          "indexed": false,
          "internalType": "address",
          "name": "escrowAddress",
          "type": "address"
        }
      ],
      "name": "ProjectActivated",
      "type": "event"
    },
    {
      "anonymous": false,
      "inputs": [
        {
          "indexed": true,
          "internalType": "bytes32",
          "name": "role",
          "type": "bytes32"
        },
        {
          "indexed": true,
          "internalType": "bytes32",
          "name": "previousAdminRole",
          "type": "bytes32"
        },
        {
          "indexed": true,
          "internalType": "bytes32",
          "name": "newAdminRole",
          "type": "bytes32"
        }
      ],
      "name": "RoleAdminChanged",
      "type": "event"
    },
    {
      "anonymous": false,
      "inputs": [
        {
          "indexed": true,
          "internalType": "bytes32",
          "name": "role",
          "type": "bytes32"
        },
        {
          "indexed": true,
          "internalType": "address",
          "name": "account",
          "type": "address"
        },
        {
          "indexed": true,
          "internalType": "address",
          "name": "sender",
          "type": "address"
        }
      ],
      "name": "RoleGranted",
      "type": "event"
    },
    {
      "anonymous": false,
      "inputs": [
        {
          "indexed": true,
          "internalType": "bytes32",
          "name": "role",
          "type": "bytes32"
        },
        {
          "indexed": true,
          "internalType": "address",
          "name": "account",
          "type": "address"
        },
        {
          "indexed": true,
          "internalType": "address",
          "name": "sender",
          "type": "address"
        }
      ],
      "name": "RoleRevoked",
      "type": "event"
    },
    {
      "anonymous": false,
      "inputs": [
        {
          "indexed": false,
          "internalType": "address",
          "name": "account",
          "type": "address"
        }
      ],
      "name": "Unpaused",
      "type": "event"
    },
    {
      "inputs": [],
      "name": "DEFAULT_ADMIN_ROLE",
      "outputs": [
        {
          "internalType": "bytes32",
          "name": "",
          "type": "bytes32"
        }
      ],
      "stateMutability": "view",
      "type": "function"
    },
    {
      "inputs": [],
      "name": "MANAGER_ROLE",
      "outputs": [
        {
          "internalType": "bytes32",
          "name": "",
          "type": "bytes32"
        }
      ],
      "stateMutability": "view",
      "type": "function"
    },
    {
      "inputs": [
        {
          "internalType": "address",
          "name": "target",
          "type": "address"
        }
      ],
      "name": "addManager",
      "outputs": [],
      "stateMutability": "nonpayable",
      "type": "function"
    },
    {
      "inputs": [
        {
          "internalType": "address",
          "name": "recipient",
          "type": "address"
        }
      ],
      "name": "createEscrow",
      "outputs": [],
      "stateMutability": "nonpayable",
      "type": "function"
    },
    {
      "inputs": [],
      "name": "currencyAddress",
      "outputs": [
        {
          "internalType": "address",
          "name": "",
          "type": "address"
        }
      ],
      "stateMutability": "view",
      "type": "function"
    },
    {
      "inputs": [],
      "name": "escrowAddress",
      "outputs": [
        {
          "internalType": "address",
          "name": "",
          "type": "address"
        }
      ],
      "stateMutability": "view",
      "type": "function"
    },
    {
      "inputs": [
        {
          "internalType": "bytes32",
          "name": "role",
          "type": "bytes32"
        }
      ],
      "name": "getRoleAdmin",
      "outputs": [
        {
          "internalType": "bytes32",
          "name": "",
          "type": "bytes32"
        }
      ],
      "stateMutability": "view",
      "type": "function"
    },
    {
      "inputs": [
        {
          "internalType": "bytes32",
          "name": "role",
          "type": "bytes32"
        },
        {
          "internalType": "address",
          "name": "account",
          "type": "address"
        }
      ],
      "name": "grantRole",
      "outputs": [],
      "stateMutability": "nonpayable",
      "type": "function"
    },
    {
      "inputs": [
        {
          "internalType": "bytes32",
          "name": "role",
          "type": "bytes32"
        },
        {
          "internalType": "address",
          "name": "account",
          "type": "address"
        }
      ],
      "name": "hasRole",
      "outputs": [
        {
          "internalType": "bool",
          "name": "",
          "type": "bool"
        }
      ],
      "stateMutability": "view",
      "type": "function"
    },
    {
      "inputs": [],
      "name": "pause",
      "outputs": [],
      "stateMutability": "nonpayable",
      "type": "function"
    },
    {
      "inputs": [],
      "name": "paused",
      "outputs": [
        {
          "internalType": "bool",
          "name": "",
          "type": "bool"
        }
      ],
      "stateMutability": "view",
      "type": "function"
    },
    {
      "inputs": [
        {
          "internalType": "address",
          "name": "target",
          "type": "address"
        }
      ],
      "name": "removeManager",
      "outputs": [],
      "stateMutability": "nonpayable",
      "type": "function"
    },
    {
      "inputs": [
        {
          "internalType": "bytes32",
          "name": "role",
          "type": "bytes32"
        },
        {
          "internalType": "address",
          "name": "account",
          "type": "address"
        }
      ],
      "name": "renounceRole",
      "outputs": [],
      "stateMutability": "nonpayable",
      "type": "function"
    },
    {
      "inputs": [
        {
          "internalType": "bytes32",
          "name": "role",
          "type": "bytes32"
        },
        {
          "internalType": "address",
          "name": "account",
          "type": "address"
        }
      ],
      "name": "revokeRole",
      "outputs": [],
      "stateMutability": "nonpayable",
      "type": "function"
    },
    {
      "inputs": [
        {
          "internalType": "address",
          "name": "_escrowAddress",
          "type": "address"
        }
      ],
      "name": "setEscrowAddress",
      "outputs": [],
      "stateMutability": "nonpayable",
      "type": "function"
    },
    {
      "inputs": [
        {
          "internalType": "bytes4",
          "name": "interfaceId",
          "type": "bytes4"
        }
      ],
      "name": "supportsInterface",
      "outputs": [
        {
          "internalType": "bool",
          "name": "",
          "type": "bool"
        }
      ],
      "stateMutability": "view",
      "type": "function"
    },
    {
      "inputs": [],
      "name": "unpause",
      "outputs": [],
      "stateMutability": "nonpayable",
      "type": "function"
    }
  ],
  "bytecode": "0x60a060405234801561001057600080fd5b50604051610fbb380380610fbb83398101604081905261002f9161017a565b6001805460ff191690556001600160a01b0381166100935760405162461bcd60e51b815260206004820152601b60248201527f412076616c696420616464726573732069732072657175697265640000000000604482015260640160405180910390fd5b6001600160a01b0381166080526100ab6000336100db565b6100d57f241ecf16d79d0f8dbfb92cbc07fe17840425976cf0667f022fe9877caa831b08336100db565b506101aa565b6000828152602081815260408083206001600160a01b038516845290915290205460ff16610176576000828152602081815260408083206001600160a01b03851684529091529020805460ff191660011790556101353390565b6001600160a01b0316816001600160a01b0316837f2f8788117e7eff1d82e926ec794901d17c78024a50270940304540a733656f0d60405160405180910390a45b5050565b60006020828403121561018c57600080fd5b81516001600160a01b03811681146101a357600080fd5b9392505050565b608051610def6101cc6000396000818161016d015261065c0152610def6000f3fe608060405234801561001057600080fd5b506004361061010b5760003560e01c80635c975abb116100a2578063ac18de4311610071578063ac18de4314610231578063d547741f14610244578063ddeb63b514610257578063ec87621c1461026a578063f6a8419e1461027f57600080fd5b80635c975abb146102035780638456cb591461020e57806391d1485414610216578063a217fddf1461022957600080fd5b80632d06177a116100de5780632d06177a146101c05780632f2ff15d146101d557806336568abe146101e85780633f4ba83a146101fb57600080fd5b806301ffc9a7146101105780630d5defa4146101385780631c1cb32314610168578063248a9ca31461018f575b600080fd5b61012361011e366004610b6d565b610292565b60405190151581526020015b60405180910390f35b6001546101509061010090046001600160a01b031681565b6040516001600160a01b03909116815260200161012f565b6101507f000000000000000000000000000000000000000000000000000000000000000081565b6101b261019d366004610b97565b60009081526020819052604090206001015490565b60405190815260200161012f565b6101d36101ce366004610bcc565b6102c9565b005b6101d36101e3366004610be7565b61035a565b6101d36101f6366004610be7565b610384565b6101d3610402565b60015460ff16610123565b6101d361046a565b610123610224366004610be7565b6104d0565b6101b2600081565b6101d361023f366004610bcc565b6104f9565b6101d3610252366004610be7565b61057e565b6101d3610265366004610bcc565b6105a3565b6101b2600080516020610d9a83398151915281565b6101d361028d366004610bcc565b6105f2565b60006001600160e01b03198216637965db0b60e01b14806102c357506301ffc9a760e01b6001600160e01b03198316145b92915050565b6102d46000336104d0565b6102f95760405162461bcd60e51b81526004016102f090610c13565b60405180910390fd5b6001600160a01b03811661033f5760405162461bcd60e51b815260206004820152600d60248201526c696e76616c206164647265737360981b60448201526064016102f0565b610357600080516020610d9a83398151915282610705565b50565b60008281526020819052604090206001015461037581610789565b61037f8383610705565b505050565b6001600160a01b03811633146103f45760405162461bcd60e51b815260206004820152602f60248201527f416363657373436f6e74726f6c3a2063616e206f6e6c792072656e6f756e636560448201526e103937b632b9903337b91039b2b63360891b60648201526084016102f0565b6103fe8282610793565b5050565b61041a600080516020610d9a833981519152336104d0565b6104605760405162461bcd60e51b815260206004820152601760248201527621b0b63632b91034b9903737ba10309036b0b730b3b2b960491b60448201526064016102f0565b6104686107f8565b565b610482600080516020610d9a833981519152336104d0565b6104c85760405162461bcd60e51b815260206004820152601760248201527621b0b63632b91034b9903737ba10309036b0b730b3b2b960491b60448201526064016102f0565b61046861084a565b6000918252602082815260408084206001600160a01b0393909316845291905290205460ff1690565b6105046000336104d0565b6105205760405162461bcd60e51b81526004016102f090610c13565b6001600160a01b0381166105665760405162461bcd60e51b815260206004820152600d60248201526c696e76616c206164647265737360981b60448201526064016102f0565b610357600080516020610d9a83398151915282610793565b60008281526020819052604090206001015461059981610789565b61037f8383610793565b6105ae6000336104d0565b6105ca5760405162461bcd60e51b81526004016102f090610c13565b600180546001600160a01b0390921661010002610100600160a81b0319909216919091179055565b6105fd6000336104d0565b6106195760405162461bcd60e51b81526004016102f090610c13565b600061063760018054906101000a90046001600160a01b0316610885565b60405163184b955960e01b81523360048201526001600160a01b0384811660248301527f0000000000000000000000000000000000000000000000000000000000000000811660448301529192509082169063184b955990606401600060405180830381600087803b1580156106ac57600080fd5b505af11580156106c0573d6000803e3d6000fd5b50506040516001600160a01b03841681527feaa5c89e62f8a6fdaf19e90c6289fd9506f5c8d620efdf2072316f150a0034dd9250602001905060405180910390a15050565b61070f82826104d0565b6103fe576000828152602081815260408083206001600160a01b03851684529091529020805460ff191660011790556107453390565b6001600160a01b0316816001600160a01b0316837f2f8788117e7eff1d82e926ec794901d17c78024a50270940304540a733656f0d60405160405180910390a45050565b61035781336108d7565b61079d82826104d0565b156103fe576000828152602081815260408083206001600160a01b0385168085529252808320805460ff1916905551339285917ff6391f5c32d9c69d2a47ea670b442974b53935d1edc7fd64eb21e047a839171b9190a45050565b61080061093b565b6001805460ff191690557f5db9ee0a495bf2e6ff9c91a7834c1ba4fdd244a5e8aa4e537bd38aeae4b073aa335b6040516001600160a01b03909116815260200160405180910390a1565b610852610984565b6001805460ff1916811790557f62e78cea01bee320cd4e420270b5ea74000d11b0c9f74754ebdbfc544b05a2583361082d565b6000808260601b9050604051733d602d80600a3d3981f3363d3d373d3d3d363d7360601b81528160148201526e5af43d82803e903d91602b57fd5bf360881b60288201526037816000f0949350505050565b6108e182826104d0565b6103fe576108f9816001600160a01b031660146109ca565b6109048360206109ca565b604051602001610915929190610c6e565b60408051601f198184030181529082905262461bcd60e51b82526102f091600401610ce3565b60015460ff166104685760405162461bcd60e51b815260206004820152601460248201527314185d5cd8589b194e881b9bdd081c185d5cd95960621b60448201526064016102f0565b60015460ff16156104685760405162461bcd60e51b815260206004820152601060248201526f14185d5cd8589b194e881c185d5cd95960821b60448201526064016102f0565b606060006109d9836002610d2c565b6109e4906002610d43565b67ffffffffffffffff8111156109fc576109fc610d56565b6040519080825280601f01601f191660200182016040528015610a26576020820181803683370190505b509050600360fc1b81600081518110610a4157610a41610d6c565b60200101906001600160f81b031916908160001a905350600f60fb1b81600181518110610a7057610a70610d6c565b60200101906001600160f81b031916908160001a9053506000610a94846002610d2c565b610a9f906001610d43565b90505b6001811115610b17576f181899199a1a9b1b9c1cb0b131b232b360811b85600f1660108110610ad357610ad3610d6c565b1a60f81b828281518110610ae957610ae9610d6c565b60200101906001600160f81b031916908160001a90535060049490941c93610b1081610d82565b9050610aa2565b508315610b665760405162461bcd60e51b815260206004820181905260248201527f537472696e67733a20686578206c656e67746820696e73756666696369656e7460448201526064016102f0565b9392505050565b600060208284031215610b7f57600080fd5b81356001600160e01b031981168114610b6657600080fd5b600060208284031215610ba957600080fd5b5035919050565b80356001600160a01b0381168114610bc757600080fd5b919050565b600060208284031215610bde57600080fd5b610b6682610bb0565b60008060408385031215610bfa57600080fd5b82359150610c0a60208401610bb0565b90509250929050565b6020808252601a908201527f43616c6c6572206973206e6f74206120737570657261646d696e000000000000604082015260600190565b60005b83811015610c65578181015183820152602001610c4d565b50506000910152565b7f416363657373436f6e74726f6c3a206163636f756e7420000000000000000000815260008351610ca6816017850160208801610c4a565b7001034b99036b4b9b9b4b733903937b6329607d1b6017918401918201528351610cd7816028840160208801610c4a565b01602801949350505050565b6020815260008251806020840152610d02816040850160208701610c4a565b601f01601f19169190910160400192915050565b634e487b7160e01b600052601160045260246000fd5b80820281158282048414176102c3576102c3610d16565b808201808211156102c3576102c3610d16565b634e487b7160e01b600052604160045260246000fd5b634e487b7160e01b600052603260045260246000fd5b600081610d9157610d91610d16565b50600019019056fe241ecf16d79d0f8dbfb92cbc07fe17840425976cf0667f022fe9877caa831b08a264697066735822122011a7037452755f73604a71cdff1dec187add8f40db0c16bc8a1746bb4097773064736f6c63430008130033",
  "linkReferences": {},
  "deployedLinkReferences": {}
}