{
  "_format": "hh-sol-artifact-1",
  "contractName": "DonationsEscrow",
  "sourceName": "contracts/DonationsEscrow.sol",
  "abi": [
    {
      "anonymous": false,
      "inputs": [
        {
          "indexed": false,
          "internalType": "uint256",
          "name": "amount",
          "type": "uint256"
        }
      ],
      "name": "CampaignCompleted",
      "type": "event"
    },
    {
      "anonymous": false,
      "inputs": [
        {
          "indexed": true,
          "internalType": "address",
          "name": "donor",
          "type": "address"
        },
        {
          "indexed": false,
          "internalType": "uint256",
          "name": "amount",
          "type": "uint256"
        }
      ],
      "name": "DonationReceived",
      "type": "event"
    },
    {
      "anonymous": false,
      "inputs": [
        {
          "indexed": true,
          "internalType": "address",
          "name": "donor",
          "type": "address"
        },
        {
          "indexed": false,
          "internalType": "uint256",
          "name": "amount",
          "type": "uint256"
        }
      ],
      "name": "DonationRefunded",
      "type": "event"
    },
    {
      "anonymous": false,
      "inputs": [
        {
          "indexed": true,
          "internalType": "address",
          "name": "donor",
          "type": "address"
        },
        {
          "indexed": false,
          "internalType": "uint256",
          "name": "amount",
          "type": "uint256"
        }
      ],
      "name": "DonationReleased",
      "type": "event"
    },
    {
      "anonymous": false,
      "inputs": [
        {
          "indexed": false,
          "internalType": "address",
          "name": "account",
          "type": "address"
        }
      ],
      "name": "Paused",
      "type": "event"
    },
    {
      "anonymous": false,
      "inputs": [
        {
          "indexed": true,
          "internalType": "bytes32",
          "name": "role",
          "type": "bytes32"
        },
        {
          "indexed": true,
          "internalType": "bytes32",
          "name": "previousAdminRole",
          "type": "bytes32"
        },
        {
          "indexed": true,
          "internalType": "bytes32",
          "name": "newAdminRole",
          "type": "bytes32"
        }
      ],
      "name": "RoleAdminChanged",
      "type": "event"
    },
    {
      "anonymous": false,
      "inputs": [
        {
          "indexed": true,
          "internalType": "bytes32",
          "name": "role",
          "type": "bytes32"
        },
        {
          "indexed": true,
          "internalType": "address",
          "name": "account",
          "type": "address"
        },
        {
          "indexed": true,
          "internalType": "address",
          "name": "sender",
          "type": "address"
        }
      ],
      "name": "RoleGranted",
      "type": "event"
    },
    {
      "anonymous": false,
      "inputs": [
        {
          "indexed": true,
          "internalType": "bytes32",
          "name": "role",
          "type": "bytes32"
        },
        {
          "indexed": true,
          "internalType": "address",
          "name": "account",
          "type": "address"
        },
        {
          "indexed": true,
          "internalType": "address",
          "name": "sender",
          "type": "address"
        }
      ],
      "name": "RoleRevoked",
      "type": "event"
    },
    {
      "anonymous": false,
      "inputs": [
        {
          "indexed": false,
          "internalType": "address",
          "name": "account",
          "type": "address"
        }
      ],
      "name": "Unpaused",
      "type": "event"
    },
    {
      "inputs": [],
      "name": "DEFAULT_ADMIN_ROLE",
      "outputs": [
        {
          "internalType": "bytes32",
          "name": "",
          "type": "bytes32"
        }
      ],
      "stateMutability": "view",
      "type": "function"
    },
    {
      "inputs": [],
      "name": "MANAGER_ROLE",
      "outputs": [
        {
          "internalType": "bytes32",
          "name": "",
          "type": "bytes32"
        }
      ],
      "stateMutability": "view",
      "type": "function"
    },
    {
      "inputs": [
        {
          "internalType": "address",
          "name": "_donorAddress",
          "type": "address"
        },
        {
          "internalType": "uint256",
          "name": "amount",
          "type": "uint256"
        }
      ],
      "name": "addDonation",
      "outputs": [],
      "stateMutability": "nonpayable",
      "type": "function"
    },
    {
      "inputs": [
        {
          "internalType": "address",
          "name": "target",
          "type": "address"
        }
      ],
      "name": "addManager",
      "outputs": [],
      "stateMutability": "nonpayable",
      "type": "function"
    },
    {
      "inputs": [],
      "name": "completeCampaign",
      "outputs": [],
      "stateMutability": "nonpayable",
      "type": "function"
    },
    {
      "inputs": [],
      "name": "completed",
      "outputs": [
        {
          "internalType": "bool",
          "name": "",
          "type": "bool"
        }
      ],
      "stateMutability": "view",
      "type": "function"
    },
    {
      "inputs": [],
      "name": "currencyAddress",
      "outputs": [
        {
          "internalType": "address",
          "name": "",
          "type": "address"
        }
      ],
      "stateMutability": "view",
      "type": "function"
    },
    {
      "inputs": [
        {
          "internalType": "address",
          "name": "",
          "type": "address"
        }
      ],
      "name": "donations",
      "outputs": [
        {
          "internalType": "uint256",
          "name": "",
          "type": "uint256"
        }
      ],
      "stateMutability": "view",
      "type": "function"
    },
    {
      "inputs": [
        {
          "internalType": "uint256",
          "name": "",
          "type": "uint256"
        }
      ],
      "name": "donorAddresses",
      "outputs": [
        {
          "internalType": "address",
          "name": "",
          "type": "address"
        }
      ],
      "stateMutability": "view",
      "type": "function"
    },
    {
      "inputs": [
        {
          "internalType": "address",
          "name": "",
          "type": "address"
        }
      ],
      "name": "existingDonors",
      "outputs": [
        {
          "internalType": "bool",
          "name": "",
          "type": "bool"
        }
      ],
      "stateMutability": "view",
      "type": "function"
    },
    {
      "inputs": [
        {
          "internalType": "address",
          "name": "_donorAddress",
          "type": "address"
        }
      ],
      "name": "getDonorDonationAmount",
      "outputs": [
        {
          "internalType": "uint256",
          "name": "amount",
          "type": "uint256"
        }
      ],
      "stateMutability": "view",
      "type": "function"
    },
    {
      "inputs": [
        {
          "internalType": "bytes32",
          "name": "role",
          "type": "bytes32"
        }
      ],
      "name": "getRoleAdmin",
      "outputs": [
        {
          "internalType": "bytes32",
          "name": "",
          "type": "bytes32"
        }
      ],
      "stateMutability": "view",
      "type": "function"
    },
    {
      "inputs": [
        {
          "internalType": "bytes32",
          "name": "role",
          "type": "bytes32"
        },
        {
          "internalType": "address",
          "name": "account",
          "type": "address"
        }
      ],
      "name": "grantRole",
      "outputs": [],
      "stateMutability": "nonpayable",
      "type": "function"
    },
    {
      "inputs": [
        {
          "internalType": "bytes32",
          "name": "role",
          "type": "bytes32"
        },
        {
          "internalType": "address",
          "name": "account",
          "type": "address"
        }
      ],
      "name": "hasRole",
      "outputs": [
        {
          "internalType": "bool",
          "name": "",
          "type": "bool"
        }
      ],
      "stateMutability": "view",
      "type": "function"
    },
    {
      "inputs": [
        {
          "internalType": "address",
          "name": "_adminAddress",
          "type": "address"
        },
        {
          "internalType": "address",
          "name": "_recipientAddress",
          "type": "address"
        },
        {
          "internalType": "address",
          "name": "_currencyAddress",
          "type": "address"
        }
      ],
      "name": "init",
      "outputs": [],
      "stateMutability": "nonpayable",
      "type": "function"
    },
    {
      "inputs": [],
      "name": "initialised",
      "outputs": [
        {
          "internalType": "bool",
          "name": "",
          "type": "bool"
        }
      ],
      "stateMutability": "view",
      "type": "function"
    },
    {
      "inputs": [],
      "name": "pause",
      "outputs": [],
      "stateMutability": "nonpayable",
      "type": "function"
    },
    {
      "inputs": [],
      "name": "paused",
      "outputs": [
        {
          "internalType": "bool",
          "name": "",
          "type": "bool"
        }
      ],
      "stateMutability": "view",
      "type": "function"
    },
    {
      "inputs": [],
      "name": "recipientAddress",
      "outputs": [
        {
          "internalType": "address payable",
          "name": "",
          "type": "address"
        }
      ],
      "stateMutability": "view",
      "type": "function"
    },
    {
      "inputs": [],
      "name": "refundDonations",
      "outputs": [],
      "stateMutability": "nonpayable",
      "type": "function"
    },
    {
      "inputs": [],
      "name": "releaseDonations",
      "outputs": [],
      "stateMutability": "nonpayable",
      "type": "function"
    },
    {
      "inputs": [
        {
          "internalType": "address",
          "name": "target",
          "type": "address"
        }
      ],
      "name": "removeManager",
      "outputs": [],
      "stateMutability": "nonpayable",
      "type": "function"
    },
    {
      "inputs": [
        {
          "internalType": "bytes32",
          "name": "role",
          "type": "bytes32"
        },
        {
          "internalType": "address",
          "name": "account",
          "type": "address"
        }
      ],
      "name": "renounceRole",
      "outputs": [],
      "stateMutability": "nonpayable",
      "type": "function"
    },
    {
      "inputs": [
        {
          "internalType": "bytes32",
          "name": "role",
          "type": "bytes32"
        },
        {
          "internalType": "address",
          "name": "account",
          "type": "address"
        }
      ],
      "name": "revokeRole",
      "outputs": [],
      "stateMutability": "nonpayable",
      "type": "function"
    },
    {
      "inputs": [
        {
          "internalType": "bytes4",
          "name": "interfaceId",
          "type": "bytes4"
        }
      ],
      "name": "supportsInterface",
      "outputs": [
        {
          "internalType": "bool",
          "name": "",
          "type": "bool"
        }
      ],
      "stateMutability": "view",
      "type": "function"
    },
    {
      "inputs": [],
      "name": "unpause",
      "outputs": [],
      "stateMutability": "nonpayable",
      "type": "function"
    }
  ],
  "bytecode": "0x60806040526006805460ff1916905534801561001a57600080fd5b506001805460ff19169055611881806100346000396000f3fe608060405234801561001057600080fd5b506004361061018e5760003560e01c80635aff5999116100de578063a217fddf11610097578063bc43423f11610071578063bc43423f14610367578063cc6cb19a1461036f578063d547741f1461038f578063ec87621c146103a257600080fd5b8063a217fddf14610344578063ac18de431461034c578063b7acb19c1461035f57600080fd5b80635aff5999146102cb5780635c975abb146102e35780637f8426d4146102ee5780638456cb591461031757806391d148541461031f5780639d9a7fe91461033257600080fd5b80632b2aee5d1161014b57806336568abe1161012557806336568abe14610285578063388558d9146102985780633b5d8c29146102bb5780633f4ba83a146102c357600080fd5b80632b2aee5d1461024c5780632d06177a1461025f5780632f2ff15d1461027257600080fd5b806301ffc9a71461019357806307003bb4146101bb578063184b9559146101c85780631915153c146101dd5780631c1cb323146101f0578063248a9ca31461021b575b600080fd5b6101a66101a13660046114eb565b6103b7565b60405190151581526020015b60405180910390f35b6006546101a69060ff1681565b6101db6101d6366004611531565b6103ee565b005b6101db6101eb366004611574565b6104ee565b600254610203906001600160a01b031681565b6040516001600160a01b0390911681526020016101b2565b61023e61022936600461159e565b60009081526020819052604090206001015490565b6040519081526020016101b2565b61020361025a36600461159e565b61073e565b6101db61026d3660046115b7565b610768565b6101db6102803660046115d2565b6107f0565b6101db6102933660046115d2565b61081a565b6101a66102a63660046115b7565b60046020526000908152604090205460ff1681565b6101db610898565b6101db610a52565b6001546102039061010090046001600160a01b031681565b60015460ff166101a6565b61023e6102fc3660046115b7565b6001600160a01b031660009081526003602052604090205490565b6101db610a90565b6101a661032d3660046115d2565b610acc565b6006546101a690610100900460ff1681565b61023e600081565b6101db61035a3660046115b7565b610af5565b6101db610b7a565b6101db610c68565b61023e61037d3660046115b7565b60036020526000908152604090205481565b6101db61039d3660046115d2565b610e0b565b61023e60008051602061182c83398151915281565b60006001600160e01b03198216637965db0b60e01b14806103e857506301ffc9a760e01b6001600160e01b03198316145b92915050565b60065460ff16156104575760405162461bcd60e51b815260206004820152602860248201527f5468697320657363726f772068617320616c7265616479206265656e20696e696044820152671d1a585b1a5cd95960c21b60648201526084015b60405180910390fd5b60018054610100600160a81b0319166101006001600160a01b038581169190910291909117909155600280546001600160a01b0319169183169190911790556006805461ff00191690556104ac600084610e30565b6104c460008051602061182c83398151915284610e30565b6104dc60008051602061182c83398151915283610e30565b50506006805460ff1916600117905550565b6104f9600033610acc565b6105155760405162461bcd60e51b815260040161044e906115fe565b6001600160a01b03821661056b5760405162461bcd60e51b815260206004820152601b60248201527f412076616c696420616464726573732069732072657175697265640000000000604482015260640161044e565b600081116105c75760405162461bcd60e51b8152602060048201526024808201527f506c6561736520696e70757420612076616c696420646f6e6174696f6e20616d6044820152631bdd5b9d60e21b606482015260840161044e565b600654610100900460ff16156106375760405162461bcd60e51b815260206004820152602f60248201527f54686520646f6e6174696f6e20706572696f6420666f7220746869732063616d60448201526e1c185a59db881a185cc8195b991959608a1b606482015260840161044e565b816001600160a01b03167f264f630d9efa0d07053a31163641d9fcc0adafc9d9e76f1c37c2ce3a558d2c528260405161067291815260200190565b60405180910390a26001600160a01b03821660009081526004602052604081205460ff1615156001036106ba57506001600160a01b0382166000908152600360205260409020545b6106c4828261164b565b6001600160a01b039093166000818152600460209081526040808320805460ff19166001908117909155600390925282209590955560058054958601815590527f036b6384b5eca791c62761152d0c79bb0604c104a5fb6f4eb0703f3154bb3db090930180546001600160a01b0319169093179092555050565b6005818154811061074e57600080fd5b6000918252602090912001546001600160a01b0316905081565b610773600033610acc565b61078f5760405162461bcd60e51b815260040161044e906115fe565b6001600160a01b0381166107d55760405162461bcd60e51b815260206004820152600d60248201526c696e76616c206164647265737360981b604482015260640161044e565b6107ed60008051602061182c83398151915282610e30565b50565b60008281526020819052604090206001015461080b81610eb4565b6108158383610e30565b505050565b6001600160a01b038116331461088a5760405162461bcd60e51b815260206004820152602f60248201527f416363657373436f6e74726f6c3a2063616e206f6e6c792072656e6f756e636560448201526e103937b632b9903337b91039b2b63360891b606482015260840161044e565b6108948282610ebe565b5050565b6108b060008051602061182c83398151915233610acc565b6108cc5760405162461bcd60e51b815260040161044e9061165e565b60065460ff6101009091041615156001146109295760405162461bcd60e51b815260206004820152601e60248201527f506c6561736520656e6420746869732063616d706169676e2066697273740000604482015260640161044e565b6005546109785760405162461bcd60e51b815260206004820152601760248201527f4e6f20646f6e6174696f6e7320746f2072656c65617365000000000000000000604482015260640161044e565b6002546040516370a0823160e01b81523060048201526000916001600160a01b0316906370a0823190602401602060405180830381865afa1580156109c1573d6000803e3d6000fd5b505050506040513d601f19601f820116820180604052508101906109e59190611695565b600154600254919250610a0a916001600160a01b039081169161010090041683610f23565b6001546040518281526101009091046001600160a01b0316907eb6232a3f584120dbd4eaa330048f5cf9baa3f0d527bd3e9c07609f7a3635939060200160405180910390a250565b610a6a60008051602061182c83398151915233610acc565b610a865760405162461bcd60e51b815260040161044e9061165e565b610a8e610f75565b565b610aa860008051602061182c83398151915233610acc565b610ac45760405162461bcd60e51b815260040161044e9061165e565b610a8e610fc7565b6000918252602082815260408084206001600160a01b0393909316845291905290205460ff1690565b610b00600033610acc565b610b1c5760405162461bcd60e51b815260040161044e906115fe565b6001600160a01b038116610b625760405162461bcd60e51b815260206004820152600d60248201526c696e76616c206164647265737360981b604482015260640161044e565b6107ed60008051602061182c83398151915282610ebe565b610b9260008051602061182c83398151915233610acc565b610bae5760405162461bcd60e51b815260040161044e9061165e565b6006805461ff0019166101001790556002546040516370a0823160e01b81523060048201526000916001600160a01b0316906370a0823190602401602060405180830381865afa158015610c06573d6000803e3d6000fd5b505050506040513d601f19601f82011682018060405250810190610c2a9190611695565b90507fbdef6a2e3aa892961a2dab48272f72f2bc1c7121eb1c0ed7e4a58e081c1e4be081604051610c5d91815260200190565b60405180910390a150565b610c8060008051602061182c83398151915233610acc565b610c9c5760405162461bcd60e51b815260040161044e9061165e565b60065460ff610100909104161515600114610cf95760405162461bcd60e51b815260206004820152601e60248201527f506c6561736520656e6420746869732063616d706169676e2066697273740000604482015260640161044e565b600554610d415760405162461bcd60e51b8152602060048201526016602482015275139bc8191bdb985d1a5bdb9cc81d1bc81c99599d5b9960521b604482015260640161044e565b60055460005b8181101561089457600060058281548110610d6457610d646116ae565b60009182526020808320909101546001600160a01b039081168084526003835260408085208054908690556004909452909320805460ff191690556002549293509091610db391168383610f23565b816001600160a01b03167f1c30fc1a279d916ed03d77161919bfc0372ef9aecc4220c1aac735e591f4faab82604051610dee91815260200190565b60405180910390a250508080610e03906116c4565b915050610d47565b600082815260208190526040902060010154610e2681610eb4565b6108158383610ebe565b610e3a8282610acc565b610894576000828152602081815260408083206001600160a01b03851684529091529020805460ff19166001179055610e703390565b6001600160a01b0316816001600160a01b0316837f2f8788117e7eff1d82e926ec794901d17c78024a50270940304540a733656f0d60405160405180910390a45050565b6107ed8133611002565b610ec88282610acc565b15610894576000828152602081815260408083206001600160a01b0385168085529252808320805460ff1916905551339285917ff6391f5c32d9c69d2a47ea670b442974b53935d1edc7fd64eb21e047a839171b9190a45050565b604080516001600160a01b038416602482015260448082018490528251808303909101815260649091019091526020810180516001600160e01b031663a9059cbb60e01b179052610815908490611066565b610f7d611138565b6001805460ff191690557f5db9ee0a495bf2e6ff9c91a7834c1ba4fdd244a5e8aa4e537bd38aeae4b073aa335b6040516001600160a01b03909116815260200160405180910390a1565b610fcf611181565b6001805460ff1916811790557f62e78cea01bee320cd4e420270b5ea74000d11b0c9f74754ebdbfc544b05a25833610faa565b61100c8282610acc565b61089457611024816001600160a01b031660146111c7565b61102f8360206111c7565b604051602001611040929190611701565b60408051601f198184030181529082905262461bcd60e51b825261044e91600401611776565b60006110bb826040518060400160405280602081526020017f5361666545524332303a206c6f772d6c6576656c2063616c6c206661696c6564815250856001600160a01b031661136a9092919063ffffffff16565b80519091501561081557808060200190518101906110d991906117a9565b6108155760405162461bcd60e51b815260206004820152602a60248201527f5361666545524332303a204552433230206f7065726174696f6e20646964206e6044820152691bdd081cdd58d8d9595960b21b606482015260840161044e565b60015460ff16610a8e5760405162461bcd60e51b815260206004820152601460248201527314185d5cd8589b194e881b9bdd081c185d5cd95960621b604482015260640161044e565b60015460ff1615610a8e5760405162461bcd60e51b815260206004820152601060248201526f14185d5cd8589b194e881c185d5cd95960821b604482015260640161044e565b606060006111d68360026117cb565b6111e190600261164b565b67ffffffffffffffff8111156111f9576111f96117e2565b6040519080825280601f01601f191660200182016040528015611223576020820181803683370190505b509050600360fc1b8160008151811061123e5761123e6116ae565b60200101906001600160f81b031916908160001a905350600f60fb1b8160018151811061126d5761126d6116ae565b60200101906001600160f81b031916908160001a90535060006112918460026117cb565b61129c90600161164b565b90505b6001811115611314576f181899199a1a9b1b9c1cb0b131b232b360811b85600f16601081106112d0576112d06116ae565b1a60f81b8282815181106112e6576112e66116ae565b60200101906001600160f81b031916908160001a90535060049490941c9361130d816117f8565b905061129f565b5083156113635760405162461bcd60e51b815260206004820181905260248201527f537472696e67733a20686578206c656e67746820696e73756666696369656e74604482015260640161044e565b9392505050565b60606113798484600085611381565b949350505050565b6060824710156113e25760405162461bcd60e51b815260206004820152602660248201527f416464726573733a20696e73756666696369656e742062616c616e636520666f6044820152651c8818d85b1b60d21b606482015260840161044e565b6001600160a01b0385163b6114395760405162461bcd60e51b815260206004820152601d60248201527f416464726573733a2063616c6c20746f206e6f6e2d636f6e7472616374000000604482015260640161044e565b600080866001600160a01b03168587604051611455919061180f565b60006040518083038185875af1925050503d8060008114611492576040519150601f19603f3d011682016040523d82523d6000602084013e611497565b606091505b50915091506114a78282866114b2565b979650505050505050565b606083156114c1575081611363565b8251156114d15782518084602001fd5b8160405162461bcd60e51b815260040161044e9190611776565b6000602082840312156114fd57600080fd5b81356001600160e01b03198116811461136357600080fd5b80356001600160a01b038116811461152c57600080fd5b919050565b60008060006060848603121561154657600080fd5b61154f84611515565b925061155d60208501611515565b915061156b60408501611515565b90509250925092565b6000806040838503121561158757600080fd5b61159083611515565b946020939093013593505050565b6000602082840312156115b057600080fd5b5035919050565b6000602082840312156115c957600080fd5b61136382611515565b600080604083850312156115e557600080fd5b823591506115f560208401611515565b90509250929050565b6020808252601a908201527f43616c6c6572206973206e6f74206120737570657261646d696e000000000000604082015260600190565b634e487b7160e01b600052601160045260246000fd5b808201808211156103e8576103e8611635565b60208082526017908201527f43616c6c6572206973206e6f742061206d616e61676572000000000000000000604082015260600190565b6000602082840312156116a757600080fd5b5051919050565b634e487b7160e01b600052603260045260246000fd5b6000600182016116d6576116d6611635565b5060010190565b60005b838110156116f85781810151838201526020016116e0565b50506000910152565b7f416363657373436f6e74726f6c3a206163636f756e74200000000000000000008152600083516117398160178501602088016116dd565b7001034b99036b4b9b9b4b733903937b6329607d1b601791840191820152835161176a8160288401602088016116dd565b01602801949350505050565b60208152600082518060208401526117958160408501602087016116dd565b601f01601f19169190910160400192915050565b6000602082840312156117bb57600080fd5b8151801515811461136357600080fd5b80820281158282048414176103e8576103e8611635565b634e487b7160e01b600052604160045260246000fd5b60008161180757611807611635565b506000190190565b600082516118218184602087016116dd565b919091019291505056fe241ecf16d79d0f8dbfb92cbc07fe17840425976cf0667f022fe9877caa831b08a264697066735822122062151d7d5003a569bc541c02c9a1ddbab76b9e4b61cd78ee98526dd89f7a555a64736f6c63430008130033",
  "linkReferences": {},
  "deployedLinkReferences": {}
}