{
  "_format": "hh-sol-artifact-1",
  "contractName": "DonationsEscrow",
  "sourceName": "contracts/DonationsEscrow.sol",
  "abi": [
    {
      "anonymous": false,
      "inputs": [
        {
          "indexed": false,
          "internalType": "uint256",
          "name": "amount",
          "type": "uint256"
        }
      ],
      "name": "CampaignCompleted",
      "type": "event"
    },
    {
      "anonymous": false,
      "inputs": [
        {
          "indexed": true,
          "internalType": "address",
          "name": "donor",
          "type": "address"
        },
        {
          "indexed": false,
          "internalType": "uint256",
          "name": "amount",
          "type": "uint256"
        }
      ],
      "name": "DonationReceived",
      "type": "event"
    },
    {
      "anonymous": false,
      "inputs": [
        {
          "indexed": true,
          "internalType": "address",
          "name": "donor",
          "type": "address"
        },
        {
          "indexed": false,
          "internalType": "uint256",
          "name": "amount",
          "type": "uint256"
        }
      ],
      "name": "DonationRefunded",
      "type": "event"
    },
    {
      "anonymous": false,
      "inputs": [
        {
          "indexed": true,
          "internalType": "address",
          "name": "donor",
          "type": "address"
        },
        {
          "indexed": false,
          "internalType": "uint256",
          "name": "amount",
          "type": "uint256"
        }
      ],
      "name": "DonationReleased",
      "type": "event"
    },
    {
      "anonymous": false,
      "inputs": [
        {
          "indexed": false,
          "internalType": "address",
          "name": "account",
          "type": "address"
        }
      ],
      "name": "Paused",
      "type": "event"
    },
    {
      "anonymous": false,
      "inputs": [
        {
          "indexed": true,
          "internalType": "bytes32",
          "name": "role",
          "type": "bytes32"
        },
        {
          "indexed": true,
          "internalType": "bytes32",
          "name": "previousAdminRole",
          "type": "bytes32"
        },
        {
          "indexed": true,
          "internalType": "bytes32",
          "name": "newAdminRole",
          "type": "bytes32"
        }
      ],
      "name": "RoleAdminChanged",
      "type": "event"
    },
    {
      "anonymous": false,
      "inputs": [
        {
          "indexed": true,
          "internalType": "bytes32",
          "name": "role",
          "type": "bytes32"
        },
        {
          "indexed": true,
          "internalType": "address",
          "name": "account",
          "type": "address"
        },
        {
          "indexed": true,
          "internalType": "address",
          "name": "sender",
          "type": "address"
        }
      ],
      "name": "RoleGranted",
      "type": "event"
    },
    {
      "anonymous": false,
      "inputs": [
        {
          "indexed": true,
          "internalType": "bytes32",
          "name": "role",
          "type": "bytes32"
        },
        {
          "indexed": true,
          "internalType": "address",
          "name": "account",
          "type": "address"
        },
        {
          "indexed": true,
          "internalType": "address",
          "name": "sender",
          "type": "address"
        }
      ],
      "name": "RoleRevoked",
      "type": "event"
    },
    {
      "anonymous": false,
      "inputs": [
        {
          "indexed": false,
          "internalType": "address",
          "name": "account",
          "type": "address"
        }
      ],
      "name": "Unpaused",
      "type": "event"
    },
    {
      "inputs": [],
      "name": "DEFAULT_ADMIN_ROLE",
      "outputs": [
        {
          "internalType": "bytes32",
          "name": "",
          "type": "bytes32"
        }
      ],
      "stateMutability": "view",
      "type": "function"
    },
    {
      "inputs": [],
      "name": "MANAGER_ROLE",
      "outputs": [
        {
          "internalType": "bytes32",
          "name": "",
          "type": "bytes32"
        }
      ],
      "stateMutability": "view",
      "type": "function"
    },
    {
      "inputs": [
        {
          "internalType": "uint256",
          "name": "amount",
          "type": "uint256"
        }
      ],
      "name": "addDonation",
      "outputs": [],
      "stateMutability": "nonpayable",
      "type": "function"
    },
    {
      "inputs": [
        {
          "internalType": "address",
          "name": "target",
          "type": "address"
        }
      ],
      "name": "addManager",
      "outputs": [],
      "stateMutability": "nonpayable",
      "type": "function"
    },
    {
      "inputs": [],
      "name": "completeCampaign",
      "outputs": [],
      "stateMutability": "nonpayable",
      "type": "function"
    },
    {
      "inputs": [],
      "name": "completed",
      "outputs": [
        {
          "internalType": "bool",
          "name": "",
          "type": "bool"
        }
      ],
      "stateMutability": "view",
      "type": "function"
    },
    {
      "inputs": [],
      "name": "currencyAddress",
      "outputs": [
        {
          "internalType": "address",
          "name": "",
          "type": "address"
        }
      ],
      "stateMutability": "view",
      "type": "function"
    },
    {
      "inputs": [
        {
          "internalType": "address",
          "name": "",
          "type": "address"
        }
      ],
      "name": "donations",
      "outputs": [
        {
          "internalType": "uint256",
          "name": "",
          "type": "uint256"
        }
      ],
      "stateMutability": "view",
      "type": "function"
    },
    {
      "inputs": [
        {
          "internalType": "uint256",
          "name": "",
          "type": "uint256"
        }
      ],
      "name": "donorAddresses",
      "outputs": [
        {
          "internalType": "address",
          "name": "",
          "type": "address"
        }
      ],
      "stateMutability": "view",
      "type": "function"
    },
    {
      "inputs": [
        {
          "internalType": "address",
          "name": "",
          "type": "address"
        }
      ],
      "name": "existingDonors",
      "outputs": [
        {
          "internalType": "bool",
          "name": "",
          "type": "bool"
        }
      ],
      "stateMutability": "view",
      "type": "function"
    },
    {
      "inputs": [
        {
          "internalType": "address",
          "name": "donor",
          "type": "address"
        }
      ],
      "name": "getDonorDonationAmount",
      "outputs": [
        {
          "internalType": "uint256",
          "name": "amount",
          "type": "uint256"
        }
      ],
      "stateMutability": "view",
      "type": "function"
    },
    {
      "inputs": [
        {
          "internalType": "bytes32",
          "name": "role",
          "type": "bytes32"
        }
      ],
      "name": "getRoleAdmin",
      "outputs": [
        {
          "internalType": "bytes32",
          "name": "",
          "type": "bytes32"
        }
      ],
      "stateMutability": "view",
      "type": "function"
    },
    {
      "inputs": [
        {
          "internalType": "bytes32",
          "name": "role",
          "type": "bytes32"
        },
        {
          "internalType": "address",
          "name": "account",
          "type": "address"
        }
      ],
      "name": "grantRole",
      "outputs": [],
      "stateMutability": "nonpayable",
      "type": "function"
    },
    {
      "inputs": [
        {
          "internalType": "bytes32",
          "name": "role",
          "type": "bytes32"
        },
        {
          "internalType": "address",
          "name": "account",
          "type": "address"
        }
      ],
      "name": "hasRole",
      "outputs": [
        {
          "internalType": "bool",
          "name": "",
          "type": "bool"
        }
      ],
      "stateMutability": "view",
      "type": "function"
    },
    {
      "inputs": [
        {
          "internalType": "address",
          "name": "_adminAddress",
          "type": "address"
        },
        {
          "internalType": "address",
          "name": "_recipientAddress",
          "type": "address"
        },
        {
          "internalType": "address",
          "name": "_currencyAddress",
          "type": "address"
        }
      ],
      "name": "init",
      "outputs": [],
      "stateMutability": "nonpayable",
      "type": "function"
    },
    {
      "inputs": [],
      "name": "pause",
      "outputs": [],
      "stateMutability": "nonpayable",
      "type": "function"
    },
    {
      "inputs": [],
      "name": "paused",
      "outputs": [
        {
          "internalType": "bool",
          "name": "",
          "type": "bool"
        }
      ],
      "stateMutability": "view",
      "type": "function"
    },
    {
      "inputs": [],
      "name": "recipientAddress",
      "outputs": [
        {
          "internalType": "address payable",
          "name": "",
          "type": "address"
        }
      ],
      "stateMutability": "view",
      "type": "function"
    },
    {
      "inputs": [],
      "name": "refundDonations",
      "outputs": [],
      "stateMutability": "nonpayable",
      "type": "function"
    },
    {
      "inputs": [],
      "name": "releaseDonations",
      "outputs": [],
      "stateMutability": "nonpayable",
      "type": "function"
    },
    {
      "inputs": [
        {
          "internalType": "address",
          "name": "target",
          "type": "address"
        }
      ],
      "name": "removeManager",
      "outputs": [],
      "stateMutability": "nonpayable",
      "type": "function"
    },
    {
      "inputs": [
        {
          "internalType": "bytes32",
          "name": "role",
          "type": "bytes32"
        },
        {
          "internalType": "address",
          "name": "account",
          "type": "address"
        }
      ],
      "name": "renounceRole",
      "outputs": [],
      "stateMutability": "nonpayable",
      "type": "function"
    },
    {
      "inputs": [
        {
          "internalType": "bytes32",
          "name": "role",
          "type": "bytes32"
        },
        {
          "internalType": "address",
          "name": "account",
          "type": "address"
        }
      ],
      "name": "revokeRole",
      "outputs": [],
      "stateMutability": "nonpayable",
      "type": "function"
    },
    {
      "inputs": [
        {
          "internalType": "bytes4",
          "name": "interfaceId",
          "type": "bytes4"
        }
      ],
      "name": "supportsInterface",
      "outputs": [
        {
          "internalType": "bool",
          "name": "",
          "type": "bool"
        }
      ],
      "stateMutability": "view",
      "type": "function"
    },
    {
      "inputs": [],
      "name": "unpause",
      "outputs": [],
      "stateMutability": "nonpayable",
      "type": "function"
    }
  ],
  "bytecode": "0x608060405234801561001057600080fd5b506001805460ff1916905561177d8061002a6000396000f3fe608060405234801561001057600080fd5b50600436106101735760003560e01c80635c975abb116100de578063ac18de4311610097578063cc6cb19a11610071578063cc6cb19a1461032f578063d547741f1461034f578063d8251a1414610362578063ec87621c1461037557600080fd5b8063ac18de431461030c578063b7acb19c1461031f578063bc43423f1461032757600080fd5b80635c975abb146102a85780637f8426d4146102b35780638456cb59146102dc57806391d14854146102e45780639d9a7fe9146102f7578063a217fddf1461030457600080fd5b80632f2ff15d116101305780632f2ff15d1461023757806336568abe1461024a578063388558d91461025d5780633b5d8c29146102805780633f4ba83a146102885780635aff59991461029057600080fd5b806301ffc9a714610178578063184b9559146101a05780631c1cb323146101b5578063248a9ca3146101e05780632b2aee5d146102115780632d06177a14610224575b600080fd5b61018b610186366004611448565b61038a565b60405190151581526020015b60405180910390f35b6101b36101ae36600461148e565b6103c1565b005b6002546101c8906001600160a01b031681565b6040516001600160a01b039091168152602001610197565b6102036101ee3660046114d1565b60009081526020819052604090206001015490565b604051908152602001610197565b6101c861021f3660046114d1565b61043f565b6101b36102323660046114ea565b610469565b6101b3610245366004611505565b610526565b6101b3610258366004611505565b61054b565b61018b61026b3660046114ea565b60046020526000908152604090205460ff1681565b6101b36105c9565b6101b361077d565b6001546101c89061010090046001600160a01b031681565b60015460ff1661018b565b6102036102c13660046114ea565b6001600160a01b031660009081526003602052604090205490565b6101b36107bb565b61018b6102f2366004611505565b6107f7565b60065461018b9060ff1681565b610203600081565b6101b361031a3660046114ea565b610820565b6101b36108d5565b6101b36109c1565b61020361033d3660046114ea565b60036020526000908152604090205481565b6101b361035d366004611505565b610b5e565b6101b36103703660046114d1565b610b83565b61020360008051602061172883398151915281565b60006001600160e01b03198216637965db0b60e01b14806103bb57506301ffc9a760e01b6001600160e01b03198316145b92915050565b60018054610100600160a81b0319166101006001600160a01b038581169190910291909117909155600280546001600160a01b0319169183169190911790556006805460ff1916905561042260008051602061172883398151915284610d3e565b61043a60008051602061172883398151915283610d3e565b505050565b6005818154811061044f57600080fd5b6000918252602090912001546001600160a01b0316905081565b6104746000336107f7565b6104c55760405162461bcd60e51b815260206004820152601a60248201527f43616c6c6572206973206e6f74206120737570657261646d696e00000000000060448201526064015b60405180910390fd5b6001600160a01b03811661050b5760405162461bcd60e51b815260206004820152600d60248201526c696e76616c206164647265737360981b60448201526064016104bc565b61052360008051602061172883398151915282610d3e565b50565b60008281526020819052604090206001015461054181610dc2565b61043a8383610d3e565b6001600160a01b03811633146105bb5760405162461bcd60e51b815260206004820152602f60248201527f416363657373436f6e74726f6c3a2063616e206f6e6c792072656e6f756e636560448201526e103937b632b9903337b91039b2b63360891b60648201526084016104bc565b6105c58282610dcc565b5050565b6105e1600080516020611728833981519152336107f7565b6105fd5760405162461bcd60e51b81526004016104bc90611531565b60065460ff1615156001146106545760405162461bcd60e51b815260206004820152601e60248201527f506c6561736520656e6420746869732063616d706169676e206669727374000060448201526064016104bc565b6005546106a35760405162461bcd60e51b815260206004820152601760248201527f4e6f20646f6e6174696f6e7320746f2072656c6561736500000000000000000060448201526064016104bc565b6002546040516370a0823160e01b81523060048201526000916001600160a01b0316906370a0823190602401602060405180830381865afa1580156106ec573d6000803e3d6000fd5b505050506040513d601f19601f820116820180604052508101906107109190611568565b600154600254919250610735916001600160a01b039081169161010090041683610e31565b6001546040518281526101009091046001600160a01b0316907eb6232a3f584120dbd4eaa330048f5cf9baa3f0d527bd3e9c07609f7a3635939060200160405180910390a250565b610795600080516020611728833981519152336107f7565b6107b15760405162461bcd60e51b81526004016104bc90611531565b6107b9610e94565b565b6107d3600080516020611728833981519152336107f7565b6107ef5760405162461bcd60e51b81526004016104bc90611531565b6107b9610ee6565b6000918252602082815260408084206001600160a01b0393909316845291905290205460ff1690565b61082b6000336107f7565b6108775760405162461bcd60e51b815260206004820152601a60248201527f43616c6c6572206973206e6f74206120737570657261646d696e00000000000060448201526064016104bc565b6001600160a01b0381166108bd5760405162461bcd60e51b815260206004820152600d60248201526c696e76616c206164647265737360981b60448201526064016104bc565b61052360008051602061172883398151915282610dcc565b6108ed600080516020611728833981519152336107f7565b6109095760405162461bcd60e51b81526004016104bc90611531565b6006805460ff191660011790556002546040516370a0823160e01b81523060048201526000916001600160a01b0316906370a0823190602401602060405180830381865afa15801561095f573d6000803e3d6000fd5b505050506040513d601f19601f820116820180604052508101906109839190611568565b90507fbdef6a2e3aa892961a2dab48272f72f2bc1c7121eb1c0ed7e4a58e081c1e4be0816040516109b691815260200190565b60405180910390a150565b6109d9600080516020611728833981519152336107f7565b6109f55760405162461bcd60e51b81526004016104bc90611531565b60065460ff161515600114610a4c5760405162461bcd60e51b815260206004820152601e60248201527f506c6561736520656e6420746869732063616d706169676e206669727374000060448201526064016104bc565b600554610a945760405162461bcd60e51b8152602060048201526016602482015275139bc8191bdb985d1a5bdb9cc81d1bc81c99599d5b9960521b60448201526064016104bc565b60055460005b818110156105c557600060058281548110610ab757610ab7611581565b60009182526020808320909101546001600160a01b039081168084526003835260408085208054908690556004909452909320805460ff191690556002549293509091610b0691168383610e31565b816001600160a01b03167f1c30fc1a279d916ed03d77161919bfc0372ef9aecc4220c1aac735e591f4faab82604051610b4191815260200190565b60405180910390a250508080610b56906115ad565b915050610a9a565b600082815260208190526040902060010154610b7981610dc2565b61043a8383610dcc565b60008111610bdf5760405162461bcd60e51b8152602060048201526024808201527f506c6561736520696e70757420612076616c696420646f6e6174696f6e20616d6044820152631bdd5b9d60e21b60648201526084016104bc565b60065460ff1615610c4a5760405162461bcd60e51b815260206004820152602f60248201527f54686520646f6e6174696f6e20706572696f6420666f7220746869732063616d60448201526e1c185a59db881a185cc8195b991959608a1b60648201526084016104bc565b600254610c62906001600160a01b0316333084610f21565b60405181815233907f264f630d9efa0d07053a31163641d9fcc0adafc9d9e76f1c37c2ce3a558d2c529060200160405180910390a23360009081526004602052604081205460ff161515600103610cc55750336000908152600360205260409020545b610ccf82826115c6565b336000818152600460209081526040808320805460ff19166001908117909155600390925282209390935560058054938401815590527f036b6384b5eca791c62761152d0c79bb0604c104a5fb6f4eb0703f3154bb3db090910180546001600160a01b03191690911790555050565b610d4882826107f7565b6105c5576000828152602081815260408083206001600160a01b03851684529091529020805460ff19166001179055610d7e3390565b6001600160a01b0316816001600160a01b0316837f2f8788117e7eff1d82e926ec794901d17c78024a50270940304540a733656f0d60405160405180910390a45050565b6105238133610f5f565b610dd682826107f7565b156105c5576000828152602081815260408083206001600160a01b0385168085529252808320805460ff1916905551339285917ff6391f5c32d9c69d2a47ea670b442974b53935d1edc7fd64eb21e047a839171b9190a45050565b6040516001600160a01b03831660248201526044810182905261043a90849063a9059cbb60e01b906064015b60408051601f198184030181529190526020810180516001600160e01b03166001600160e01b031990931692909217909152610fc3565b610e9c611095565b6001805460ff191690557f5db9ee0a495bf2e6ff9c91a7834c1ba4fdd244a5e8aa4e537bd38aeae4b073aa335b6040516001600160a01b03909116815260200160405180910390a1565b610eee6110de565b6001805460ff1916811790557f62e78cea01bee320cd4e420270b5ea74000d11b0c9f74754ebdbfc544b05a25833610ec9565b6040516001600160a01b0380851660248301528316604482015260648101829052610f599085906323b872dd60e01b90608401610e5d565b50505050565b610f6982826107f7565b6105c557610f81816001600160a01b03166014611124565b610f8c836020611124565b604051602001610f9d9291906115fd565b60408051601f198184030181529082905262461bcd60e51b82526104bc91600401611672565b6000611018826040518060400160405280602081526020017f5361666545524332303a206c6f772d6c6576656c2063616c6c206661696c6564815250856001600160a01b03166112c79092919063ffffffff16565b80519091501561043a578080602001905181019061103691906116a5565b61043a5760405162461bcd60e51b815260206004820152602a60248201527f5361666545524332303a204552433230206f7065726174696f6e20646964206e6044820152691bdd081cdd58d8d9595960b21b60648201526084016104bc565b60015460ff166107b95760405162461bcd60e51b815260206004820152601460248201527314185d5cd8589b194e881b9bdd081c185d5cd95960621b60448201526064016104bc565b60015460ff16156107b95760405162461bcd60e51b815260206004820152601060248201526f14185d5cd8589b194e881c185d5cd95960821b60448201526064016104bc565b606060006111338360026116c7565b61113e9060026115c6565b67ffffffffffffffff811115611156576111566116de565b6040519080825280601f01601f191660200182016040528015611180576020820181803683370190505b509050600360fc1b8160008151811061119b5761119b611581565b60200101906001600160f81b031916908160001a905350600f60fb1b816001815181106111ca576111ca611581565b60200101906001600160f81b031916908160001a90535060006111ee8460026116c7565b6111f99060016115c6565b90505b6001811115611271576f181899199a1a9b1b9c1cb0b131b232b360811b85600f166010811061122d5761122d611581565b1a60f81b82828151811061124357611243611581565b60200101906001600160f81b031916908160001a90535060049490941c9361126a816116f4565b90506111fc565b5083156112c05760405162461bcd60e51b815260206004820181905260248201527f537472696e67733a20686578206c656e67746820696e73756666696369656e7460448201526064016104bc565b9392505050565b60606112d684846000856112de565b949350505050565b60608247101561133f5760405162461bcd60e51b815260206004820152602660248201527f416464726573733a20696e73756666696369656e742062616c616e636520666f6044820152651c8818d85b1b60d21b60648201526084016104bc565b6001600160a01b0385163b6113965760405162461bcd60e51b815260206004820152601d60248201527f416464726573733a2063616c6c20746f206e6f6e2d636f6e747261637400000060448201526064016104bc565b600080866001600160a01b031685876040516113b2919061170b565b60006040518083038185875af1925050503d80600081146113ef576040519150601f19603f3d011682016040523d82523d6000602084013e6113f4565b606091505b509150915061140482828661140f565b979650505050505050565b6060831561141e5750816112c0565b82511561142e5782518084602001fd5b8160405162461bcd60e51b81526004016104bc9190611672565b60006020828403121561145a57600080fd5b81356001600160e01b0319811681146112c057600080fd5b80356001600160a01b038116811461148957600080fd5b919050565b6000806000606084860312156114a357600080fd5b6114ac84611472565b92506114ba60208501611472565b91506114c860408501611472565b90509250925092565b6000602082840312156114e357600080fd5b5035919050565b6000602082840312156114fc57600080fd5b6112c082611472565b6000806040838503121561151857600080fd5b8235915061152860208401611472565b90509250929050565b60208082526017908201527f43616c6c6572206973206e6f742061206d616e61676572000000000000000000604082015260600190565b60006020828403121561157a57600080fd5b5051919050565b634e487b7160e01b600052603260045260246000fd5b634e487b7160e01b600052601160045260246000fd5b6000600182016115bf576115bf611597565b5060010190565b808201808211156103bb576103bb611597565b60005b838110156115f45781810151838201526020016115dc565b50506000910152565b7f416363657373436f6e74726f6c3a206163636f756e74200000000000000000008152600083516116358160178501602088016115d9565b7001034b99036b4b9b9b4b733903937b6329607d1b60179184019182015283516116668160288401602088016115d9565b01602801949350505050565b60208152600082518060208401526116918160408501602087016115d9565b601f01601f19169190910160400192915050565b6000602082840312156116b757600080fd5b815180151581146112c057600080fd5b80820281158282048414176103bb576103bb611597565b634e487b7160e01b600052604160045260246000fd5b60008161170357611703611597565b506000190190565b6000825161171d8184602087016115d9565b919091019291505056fe241ecf16d79d0f8dbfb92cbc07fe17840425976cf0667f022fe9877caa831b08a2646970667358221220c06f85404d06874f93ed83c1fb7b2a0637dd9f8bb2c2fa4ed0a26c5967fb945d64736f6c63430008130033",
  "linkReferences": {},
  "deployedLinkReferences": {}
}